:020000021000EC
:108000000040002001750200497502004B75020016
:108010000000000000000000000000000000000060
:108020000000000000000000000000004D7502008C
:1080300000000000000000004F75020051750200B2
:108040005375020053750200537502005375020008
:108050005375020000000000B19D010021A5010040
:1080600053750200537502005375020053750200E8
:1080700053750200537502005375020053750200D8
:1080800053750200FD8E0100537502005375020006
:108090004D8F010053750200C17402005375020038
:1080A000537502005375020000000000000000003C
:1080B00000000000000000000000000000000000C0
:1080C00010B5064C2378002B07D1054B002B02D0AE
:1080D000044800E000BF0123237010BD8820002069
:1080E00000000000F0910200044B10B5002B03D0FB
:1080F0000349044800E000BF10BDC0460000000076
:108100008C200020F0910200164B002B00D1144B64
:108110009D46402292029A1A924600218B460F46B3
:108120001348144A121A00F065F80F4B002B00D0C8
:1081300098470E4B002B00D09847002000210400E8
:108140000D000D48002802D00C4800E000BF00F0F0
:108150002DF82000290002F083FD00F011F8C04640
:1081600000000800004000200000000000000000A7
:10817000882000209C260020000000000000000055
:10818000084B10B50400002B02D0002100E000BF16
:10819000054B1868836A002B00D09847200000F038
:1081A00031F8C04600000000D880020070B50026FB
:1081B0000C4D0D4C641BA410A64209D100260FF0F3
:1081C0007FFF0A4D0A4C641BA410A64205D170BD66
:1081D000B300EB5898470136EEE7B300EB589847E9
:1081E0000136F2E78020002080200020802000203F
:1081F0008420002003001218934200D170471970A8
:108200000133F9E7FEE7C04680B582B000AF786081
:108210007B68032213405A425341DBB21800BD462B
:1082200002B080BD80B582B000AF0200FB1D1A70A5
:10823000FB1D1B781A001F23134001229A40034B99
:108240001A60C046BD4602B080BDC04600E100E0F5
:1082500080B582B000AF0200FB1D1A70FB1D1B78B9
:108260001A001F23134001229A401300034A1900E9
:108270008023D150C046BD4602B080BD00E100E081
:1082800080B582B000AF0200FB1D1A70FB1D1B7889
:108290001A001F23134001229A401300044A1900B8
:1082A00080235B00D150C046BD4602B080BDC046B1
:1082B00000E100E080B582B000AF0200FB1D1A7043
:1082C000FB1D1B781A001F23134001229A40130044
:1082D000044A1900C0235B00D150C046BD4602B01D
:1082E00080BDC04600E100E090B583B000AF020061
:1082F0003960FB1D1A70FB1D1B787F2B32D92F4A6A
:10830000FB1D1B7819000F230B40083B9B0806330D
:108310009B00D31804331B68FA1D12781100032246
:108320000A40D200FF2191400A00D2431A401100B6
:108330003B689B01FF221A40FB1D1B78180003239A
:108340000340DB009A401D48FB1D1B781C000F23D7
:108350002340083B9B080A4306339B00C3180433A1
:108360001A6027E0164AFB1D1B785BB29B08C033DE
:108370009B009B58FA1D1278110003220A40D2007C
:10838000FF2191400A00D2431A4011003B689B0133
:10839000FF221A40FB1D1B78180003230340DB005B
:1083A0009A400748FB1D1B785BB29B080A43C03309
:1083B0009B001A50C046BD4603B090BD00ED00E0E2
:1083C00000E100E080B582B000AF0200FB1D1A7032
:1083D000FB1D1B787F2B18D9174AFB1D1B78190032
:1083E0000F230B40083B9B0806339B00D318043334
:1083F0001A68FB1D1B78190003230B40DB00DA40D1
:1084000013009B090322134012E00C4AFB1D1B784A
:108410005BB29B08C0339B009A58FB1D1B78190068
:1084200003230B40DB00DA4013009B0903221340B7
:108430001800BD4602B080BD00ED00E000E100E0A4
:1084400080B582B000AF0C4B5B68DB05DB0D7B6059
:108450007B68002B0AD07B68103B3B603B685BB2BB
:108460001800FFF7AFFF0300DBB200E004231800A1
:10847000BD4602B080BDC04600ED00E080B582B0D0
:1084800000AF78600649A123DB007A68CA50032157
:108490001120FFF729FFC046BD4602B080BDC0468F
:1084A0000010014080B582B000AF1749D1239B0076
:1084B00080225202CA501449C1239B0080225202DA
:1084C000CA501120FFF7F6FE1120FFF7ABFE0E4B4E
:1084D00001221A602F237B607B6818000138C04698
:1084E000C046C046C046C046C046C046C046C0465C
:1084F000C046C046C046F1D1044B01221A70C046A6
:10850000BD4602B080BDC04600100140C42000201E
:1085100080B582B000AF1120FFF79AFE1F49D22329
:108520009B0080225202CA501C49C2239B00802219
:108530005202CA50194B01225A602F237B607B687C
:1085400018000138C046C046C046C046C046C046B6
:10855000C046C046C046C046C046C046F1D10F4BDB
:1085600001229A600E4B00221A602F233B603B6869
:1085700018000138C046C046C046C046C046C04686
:10858000C046C046C046C046C046C046F1D1054BB5
:1085900000221A70C046BD4602B080BD00100140E6
:1085A000B0200020C420002080B500AF024A034B59
:1085B000D3581800BD4680BD0010014004050000DE
:1085C00080B582B000AF786039607A683B68D31AB2
:1085D0001B021B0A1800BD4602B080BD80B582B0E8
:1085E00000AF78600449A823DB007A68CA50C0460F
:1085F000BD4602B080BDC0460010014080B586B0C7
:1086000000AF7860284B1B68002B03D1264B7A689B
:108610001A6045E07B681A68234B1B681B689A4206
:1086200010D8214B1B6819687B681A681E4B1B68A1
:108630008A1A1A601C4B1A687B68DA611A4B7A68CE
:108640001A602DE07B681B68FB60174B1B687B6121
:10865000154B1B683B6109E03B691B68FA68D31A3C
:10866000FB603B697B613B69DB693B613B69002BDC
:1086700004D03B691B68FA689A42EDD83B69002B2D
:1086800005D03B691A68FB68D21A3B691A607B689F
:10869000FA681A607B683A69DA617B697A68DA613C
:1086A000C046BD4606B080BDAC20002080B586B077
:1086B00000AF7860224B1B687B617B693B6108E0FF
:1086C0003A697B689A4208D03B697B613B69DB6908
:1086D0003B613B69002BF3D100E0C0463B69002BB6
:1086E00029D07A693B699A4211D1154B1B68DA6926
:1086F000134B1A60124B1B68002B08D1114B01223F
:108700009A60114B00221A60104B01221A703B69CB
:108710001B68FB603B69DA697B69DA617B69DB694D
:108720003B613B69002B07D03B691A68FB68D21894
:108730003B691A6000E0C046BD4606B080BDC04639
:10874000AC20002000100140B0200020C5200020F7
:1087500080B500AF1120FFF793FDC046BD4680BD38
:1087600080B500AF1420FFF78BFDC046BD4680BD2D
:1087700080B584B000AF7860114B1B68002B15D01A
:108780000F4B1A687B6858697B689B691900904792
:108790000300FB60FB68BB60BB68002B0CD0BB68B0
:1087A00000220021180001F0ABFE05E07B685A6949
:1087B0007B689B6918009047C046BD4604B080BDE9
:1087C000C020002080B584B000AF2C4B1B68002B6C
:1087D00050D000237B60FFF7E7FE0200284B1B68A8
:1087E00019001000FFF7ECFE0300BB60234B1B6871
:1087F000FB601EE0FB681B68BA689A421DD3FB68E9
:108800001B68BA68D31ABB60FB681B687A68D31808
:108810007B60FB683B60FB68DB69FB603B681B7C43
:10882000002B06D03B6800221A743B681800FFF743
:108830009FFFFB68002BDDD100E0C046114B1A788A
:10884000114B1B789A420CD10F4B1B780133DAB2D3
:108850000D4B1A700C4B1B78022B02D10A4B0022D5
:108860001A70094B1B781A00084B92007968D15096
:10887000FFF776FFC046BD4604B080BDAC200020A7
:10888000B0200020BC200020BD200020B42000200B
:1088900080B582B000AF7860184B1A78184B1B78FF
:1088A0009A4223D0154B1B780133DAB2134B1A705E
:1088B000124B1B78022B02D1104B00221A700F4B67
:1088C0001B781A000F4B9200D2587B681A607B68A5
:1088D0001A680D4B1B68D2180B4B1A600A4B1B68A9
:1088E0001B021A0A084B1A60012303E07B6800226E
:1088F0001A6000231800BD4602B080BDBC200020D5
:10890000BD200020B4200020B020002080B586B01B
:1089100000AF344B1B683B611723FB18324A1278B7
:108920001A704BE0314B1A681723FB181B78DB00D9
:10893000D318FB601623FB18FA6812781A7036E019
:10894000FB68596816203B181A7813005B009B18C7
:10895000DB00CB18BB603B181A783B1801321A7049
:10896000FB689B783A1812789A4203D11623FB18B9
:1089700000221A70BB681B78022B02D0032B10D088
:1089800014E0BB685B681800FFF790FE0FE0154B22
:108990001B687B607B6800221A747B68DA69114B64
:1089A0001A60104B1B68002BF1D100E0C046FB6839
:1089B0005B781622BA1812789A42C1D11722BB18D6
:1089C0001B78BA18591E1170002BABD1054B1B68D0
:1089D0003A69D31A5A1E9341DBB21800BD4606B05D
:1089E00080BDC046AC200020A4200020A82000208C
:1089F00080B588B000AFF860B9607A600023FB6191
:108A000038E0204B1B68BB61BB691B68FA689A425F
:108A100006D2BB691A68FB68D21ABB691A602DE0DE
:108A2000BB691B68FA68D31AFB60BB691B68FA69EB
:108A3000D318FB61BB6900221A60124B1B687B6173
:108A4000BB69DA690F4B1A60BB69DB68002B11D078
:108A5000BA68FB69D3181B021A0ABB695A60BB6962
:108A6000DA68BB699A607B681A68BB69DA617B68FF
:108A70007A691A60034B1B68002BC2D1C046BD4601
:108A800008B080BDAC20002080B588B000AF786011
:108A90005C4B1B687B611F23FB185B4A12781A70C2
:108AA0009BE05A4B1A681F23FB181B78DB00D31876
:108AB0003B6187E07B68002B05D07B68BB61BB69AD
:108AC000DB697B603CE03B695A683B691B781900B5
:108AD0000B005B005B18DB00D318FB603B691B7865
:108AE0000133DAB23B691A703B691A783B699B78AB
:108AF0009A4202D13B6900221A70FB685B68BB6135
:108B0000FB681B78012B5DD1BB691B7C002B00D05F
:108B100058E0FB689A68BB695A60FB68DA68BB6911
:108B20009A60FB681A69BB69DA60FB685A69BB69BD
:108B30009A61374B1B78002B02D0BB6900225A6028
:108B4000BB695A68334B1B68D31A1B021B0A324A93
:108B500093420ED8BB695A682E4B1B68190010004F
:108B6000FFF72EFD0200BB699B68D218BB691A6033
:108B700018E0284B1A68BB695B6819001000FFF702
:108B80001FFD0300BB60BB699B68BA689A4206D2AE
:108B9000BB699A68BB68D21ABB691A6002E0BB69FC
:108BA00000221A60BB6900225A60BB6900229A60E9
:108BB000BB6901221A74BB690022DA61BB69180023
:108BC000FFF71CFD7B68002B00D073E73B691A7828
:108BD0003B695B789A4200D06CE71F22BB181B7878
:108BE000BA18591E1170002B00D05AE7054B1B68AC
:108BF0007A69D31A5A1E9341DBB21800BD4608B0F9
:108C000080BDC046AC200020A4200020A820002069
:108C1000C5200020B0200020FEFF7F0090B589B065
:108C200000AF7860334B1B68002B5CD0314B1B6866
:108C30001B68FB61FFF7B8FC0300BB612E4B1B6890
:108C40007B617A69BB6911001800FFF7B9FC03006A
:108C500003333B61294B1B7801225340DBB2002BCD
:108C600001D0FFF71FFCFA693B69934200D2130061
:108C70007A69D3187B617B691B021B0A7B617B6964
:108C80001800FFF7ABFCFFF78FFC0300FB60BA692D
:108C9000FB6811001800FFF793FC0300DC1CBA69A5
:108CA0007B6911001800FFF78BFC03009C421CD964
:108CB000FFF77AFC03001800FFF790FC2F23BB603E
:108CC000BB6818000138C046C046C046C046C04612
:108CD000C046C046C046C046C046C046C046F1D1A8
:108CE000FFF736FD01E0FFF713FCC046BD4609B0B3
:108CF00090BDC046AC200020B0200020C420002041
:108D0000B0B586B000AF00237B601E4B1B683B6193
:108D10001D4B1B68FB600B257C193B001800FFF7FF
:108D2000B7FD030023701723FC18FFF7EFFD0300C6
:108D300023707B191B78002B09D03B683A1D3969D9
:108D40001800FFF755FE1723FB1801221A707B68E5
:108D50001800FFF799FE031E03D01723FB1801220A
:108D60001A701723FB181B78002B03D0FB68180020
:108D7000FFF754FF054B00221A70C046BD4606B0EF
:108D8000B0BDC046B0200020AC200020C52000208F
:108D900080B582B000AF78600A00FB1C1A707B6857
:108DA000FA1C12785A70C046BD4602B080BD80B52C
:108DB00084B000AF786039607B685A780F217B18E7
:108DC00001321A707B689B787A1812789A4203D124
:108DD0000F23FB1800221A707B681B780F22BA1829
:108DE00012789A4201D1002310E03B680F22BA1892
:108DF00012781A707B685A687B685B7819000B00E0
:108E00005B005B18DB00D318BB60BB681800BD4675
:108E100004B080BD80B586B000AFF860B9607A60FC
:108E20003B601C4B1A68FB68DB00D3181322BA188E
:108E300011001800FFF7BBFF03007B617B69002B6B
:108E400001D1042322E07B6901221A707B69BA6890
:108E50005A60FFF7A9FB02007B699A607B697A6818
:108E6000DA607B693A681A617B693A6A5A61094B30
:108E70001A68FB68DB00D2181323FB181B78190053
:108E80001000FFF785FFFFF76BFC00231800BD46BD
:108E900006B080BDA820002080B584B000AF786007
:108EA0003960154B1A687B68DB00D3180B22BA189F
:108EB00011001800FFF77BFF0300FB60FB68002B2D
:108EC00001D1042314E0FB6802221A70FB683A689F
:108ED0005A60094B1A687B68DB00D2180B23FB1819
:108EE0001B7819001000FFF753FFFFF739FC002330
:108EF0001800BD4604B080BDA820002080B500AF9A
:108F0000114AA0235B000021D1500F4AA2235B002D
:108F10000021D1500C4AA4235B000021D1500A4A01
:108F2000A6235B000021D150074A80235B0000216B
:108F3000D150054A82235B000021D150FFF742FC4B
:108F4000C046BD4680BDC0460010014080B500AFA0
:108F5000FFF7D6FEC046BD4680BD000080B586B096
:108F600000AFF8607A603B600B23FB180A1C1A7094
:108F70007B681800FFF748F903001A0001235340EB
:108F8000DBB2002B01D0072359E07B68002B04D112
:108F90002D4B00221A60072351E0FFF7B9FA2B4B43
:108FA0003A681A602A4B03221A70274B7A681A60B3
:108FB0007B6818337B6000237B6120E0224B1A68BA
:108FC0007B69DB00D3183B613B6900221A703B6967
:108FD00000225A703B690B217A1812789A703B690B
:108FE0007A685A607B181A7813005B009B18DB00C4
:108FF0001A007B689B187B607B6901337B617B690E
:10900000022BDBDD134B00221A60134B00221A7077
:10901000124B00221A701420FFF74CF90321142080
:10902000FFF762F91420FFF7FDF8FB681800FFF75F
:1090300025FAFFF7B9FA0200094B1A60002318005D
:10904000BD4606B080BDC046A8200020C02000203C
:10905000A4200020AC200020BC200020BD20002047
:10906000B020002080B586B000AFF8607A600B2396
:10907000FB180A1C1A70154B1B68002B01D1082322
:109080001FE07B68002B01D107231AE0FB68002B4F
:1090900001D1072315E0FB681B681B7C002B01D066
:1090A00008230EE0FB681B687B617B6900221A7451
:1090B0007B690B22BA1812785A747B697A685A61F4
:1090C00000231800BD4606B080BDC046A820002081
:1090D00080B582B000AFFFF7B3F90300012B02D0D7
:1090E000032B03D005E000237B6005E001237B60B8
:1090F00002E002237B60C0467B681800BD4602B0D8
:1091000080BD000090B589B002AFF860B9607A60A8
:10911000FB687B61174B1B68002B01D1082324E0FF
:10912000FB68002B01D108231FE0BB68042B01D88A
:1091300007231AE07B695B69002B01D1082314E047
:109140007B695B7C012B01D1BB6800E000233B61A4
:10915000FFF7BEFF04003869BA6879697B6800933D
:1091600003002000FFF756FE03001800BD4607B0BD
:1091700090BDC046A820002080B584B000AF7860C4
:109180007B68FB600F4B1B68002B01D1082314E0A8
:109190007B68002B03D0FB685B69002B01D108239F
:1091A0000BE0FB6800221A74FFF792FF0200FB68D5
:1091B00019001000FFF770FE03001800BD4604B050
:1091C00080BDC046A820002080B584B000AF786084
:1091D00014E07B68013B7B600C4BFB60FB68180074
:1091E0000138C046C046C046C046C046C046C0461C
:1091F000C046C046C046C046C046F1D17B68002B81
:10920000E7D1C046BD4604B080BDC046E7030000BC
:1092100080B582B000AF0200FB1D1A70FB1D1B78E9
:109220001A001F23134001229A40034B1A60C046C4
:10923000BD4602B080BDC04600E100E080B582B00E
:1092400000AF0200FB1D1A70FB1D1B781A001F23C4
:10925000134001229A401300044A1900C0235B0006
:10926000D150C046BD4602B080BDC04600E100E01E
:1092700090B583B000AF02003960FB1D1A70FB1D72
:109280001B787F2B32D92F4AFB1D1B7819000F2327
:109290000B40083B9B0806339B00D31804331B6824
:1092A000FA1D1278110003220A40D200FF219140DA
:1092B0000A00D2431A4011003B689B01FF221A406A
:1092C000FB1D1B78180003230340DB009A401D4858
:1092D000FB1D1B781C000F232340083B9B080A43FF
:1092E00006339B00C31804331A6027E0164AFB1D9F
:1092F0001B785BB29B08C0339B009B58FA1D127809
:10930000110003220A40D200FF2191400A00D243FB
:109310001A4011003B689B01FF221A40FB1D1B787D
:10932000180003230340DB009A400748FB1D1B780D
:109330005BB29B080A43C0339B001A50C046BD462F
:1093400003B090BD00ED00E000E100E080B582B028
:1093500000AF0200FB1D1A70BB1D0A1C1A70BB1D5A
:109360001A78FB1D1B785BB211001800FFF780FF15
:10937000FB1D1B785BB21800FFF760FFFB1D1B781D
:109380005BB21800FFF744FFC046BD4602B080BD87
:1093900080B582B000AF0200BB1D1A80BB1D1B88C8
:1093A000180000F01DF803001B68013B5A425341AE
:1093B000DBB21800BD4602B080BD80B582B000AF00
:1093C0000200BB1D1A80BB1D1B88180000F008F8A6
:1093D000030000221A60C046BD4602B080BD0000F6
:1093E00080B582B000AF0200BB1D1A80BB1D1B8878
:1093F000034A944663441800BD4602B080BDC0468F
:109400000060004080B582B000AF78600449C1239D
:109410009B007A68CA50C046BD4602B080BDC046B7
:109420000060004080B582B000AF7860044AC1237C
:109430009B00D3587A6813401800BD4602B080BD27
:109440000060004080B582B000AF7860084A7B6859
:109450004533FF339B009B58054901221A437B6823
:109460004533FF339B005A50C046BD4602B080BD15
:109470000060004080B584B000AFF860B960FB1DAB
:109480001A70164AFB684533FF339B009B581349FB
:10949000134A1A40FB684533FF339B005A500F4A6A
:1094A000FB684533FF339B009A58BB681902F823C9
:1094B0005B011940FB1D1B781B041800C0239B0295
:1094C00003400B4305491A43FB684533FF339B00B8
:1094D0005A50C046BD4604B080BDC0460060004042
:1094E000FFE0FCFF80B582B000AF7860064A7B6881
:1094F0004533FF339B009B581B0A1F221340180063
:10950000BD4602B080BDC0460060004080B582B05C
:1095100000AF7860064A7B684533FF339B009B5859
:109520001B0C03221340DBB21800BD4602B080BD05
:109530000060004080B584B000AFF860B9601900E9
:10954000FB1D1A70BB1D0A1C1A701A4AFB684533B2
:10955000FF339B009B581749174A1A40FB68453355
:10956000FF339B005A50134AFB684533FF339B007F
:109570009A58BB681902F8235B011940FB1D1B7840
:109580001B041800C0239B0203401943BB1D1B781A
:109590001B05180080235B0303400B4305491A4356
:1095A000FB684533FF339B005A50C046BD4604B0AC
:1095B00080BDC04600600040FFE0ECFF90B583B086
:1095C00000AF78600C0010001900FB1C221C1A7000
:1095D000BB1C021C1A707B1C0A1C1A70FB1C1A781C
:1095E000BB1C1B785B001A437B1C1B789B001A4337
:1095F0001823FB181B781B021A4311001C23FB18AD
:109600001B781A04A023DB0511437A68C132FF32AC
:109610009200D150C046BD4603B090BD80B584B025
:1096200002AF786078680023019300230093002341
:1096300001220121FFF7C2FFC046BD4602B080BD36
:1096400080B584B002AF78600A00FB1C1A70FB1C66
:109650001A787868002301930023009313000022F6
:109660000021FFF7ABFFC046BD4602B080BD80B50C
:1096700084B000AF7860A023DB057A68C132FF3286
:109680009200D35802229343FB60A023DB057A6843
:10969000C132FF329200F968D150C046BD4604B0D5
:1096A00080BD000080B582B000AF78600A00FB1C6E
:1096B0001A70A023DB057A68C132FF329200D258BB
:1096C000A023DB050E4911407A68C132FF329200B7
:1096D000D150A023DB057A68C132FF329200D25804
:1096E000FB1C1B781B041900A023DB0511437A68BF
:1096F000C132FF329200D150C046BD4602B080BD9B
:10970000FFFFFCFF80B582B000AF7860A023DA05D0
:1097100001217B689940A123DB00D150C046BD46A2
:1097200002B080BD80B582B000AF7860A023DB05B9
:1097300001217A6891400A0002495A50C046BD464C
:1097400002B080BD0C05000080B584B000AF786029
:1097500001227B689A401300FB60A023DB050D4AC1
:109760009A587B68DA40130001221340BB60BB6843
:10977000002B06D1A023DA05A123DB00F968D15024
:1097800004E0A023DB050449FA685A50C046BD46F0
:1097900004B080BD040500000C05000080B500AFDA
:1097A000A023DA05A223DB00D3581800BD4680BDF4
:1097B00080B582B000AF7860A023DB057A68C13243
:1097C000FF329200D3581B0C03221340DBB2180067
:1097D000BD4602B080BD000080B582B000AF7860A9
:1097E000074A20217B68D3185B181B785BB20133D2
:1097F0005A1E9341DBB21800BD4602B080BDC04680
:10980000C820002080B582B000AF78600E4A2021C9
:109810007B68D3185B181B785BB2002B0ADB0A4A03
:1098200020217B68D3185B181B785BB2032B01DC0B
:10983000012300E000231A1C01231340DBB21800AF
:10984000BD4602B080BDC046C820002080B582B0B1
:1098500000AF7860084A20217B68D3185B181B781A
:109860005BB20122032B01DC00231A1CD3B21800C7
:10987000BD4602B080BDC046C820002080B582B081
:1098800000AF7860074A20217B68D3185B181B78EB
:109890005BB2DB43DBB2DB09DBB21800BD4602B0D2
:1098A00080BDC046C820002080B584B000AFF860FD
:1098B000B9607A601A00FB1C1A70BB6858B2104A73
:1098C0002021FB68D3185B18021C1A700C4BBA6875
:1098D00092007968D150FB1C1B7801225340DBB207
:1098E000002B09D0BB68043BFA6850B2044A4021FF
:1098F000D3185B18021C1A70C046BD4604B080BD68
:10990000C820002080B582B000AF7860054A2021D1
:109910007B68D3185B18FE221A70C046BD4602B0A1
:1099200080BDC046C820002080B582B000AF7860FE
:10993000054A20217B68D3185B18FF221A70C046A5
:10994000BD4602B080BDC046C820002080B582B0B0
:1099500000AF7860054A20217B68D3185B181B781C
:109960005BB21800BD4602B080BDC046C8200020D2
:1099700080B582B000AF7860034B7A689200D3580C
:109980001800BD4602B080BDC820002080B588B058
:1099900000AFF860B960FB1D1A701F23FB18FF228F
:1099A0001A70FB1D1B78002B01D0002300E004235C
:1099B0007B61FB1D1B78002B01D0042300E00823F2
:1099C0003B617B69BB6114E0104BBA699200D358CC
:1099D00001330BD1FB1D1B78BA68B969F868FFF732
:1099E00063FF1F23FB18BA691A7006E0BB690133D5
:1099F000BB61BA693B699A42E6D31F23FB181B7807
:109A00005BB21800BD4608B080BDC046C82000202B
:109A100080B582B000AF0200FB1D1A70FB1D1A78E2
:109A20000A4B920001214942D150FB1D1B78032BA8
:109A300008D9FB1D1B78043B044A4021D3185B184E
:109A4000FF221A70C046BD4602B080BDC82000206B
:109A500080B582B000AF1E4B44229B5C002B01D02E
:109A6000082331E0FB1D00221A7009E0FB1D1B7862
:109A70001800FFF759FFFB1D1A78FB1D01321A7001
:109A8000FB1D1B781F2BF1D9FB1D00221A7009E06A
:109A9000FB1D1B781800FFF7BBFFFB1D1A78FB1D91
:109AA00001321A70FB1D1B78072BF1D90321062008
:109AB000FFF74CFC80231B061800FFF7A3FC044BA8
:109AC00044220121995400231800BD4602B080BDF4
:109AD000C820002080B500AF044B44229B5C5A1E76
:109AE0009341DBB21800BD4680BDC046C8200020AF
:109AF000B0B584B000AF786039600023FB607B684C
:109B00001800FFF769FE031E02D00823FB6039E04E
:109B10003B689B78002B1DD00B257C197B680122AC
:109B200000211800FFF732FF030023707B191B7818
:109B30005BB201330BD00B23FB18002018563B6897
:109B40001A783B685B787968FFF7F4FC06E0042339
:109B5000FB6003E07B681800FFF7D4FEFB68002B76
:109B600010D13B685B78012B04D17B681800FFF7AC
:109B7000C9FD03E07B681800FFF7D4FD7B6818007F
:109B8000FFF74CFDFB681800BD4604B0B0BD80B5C2
:109B900082B000AF78607B681800FFF7B3FDC04665
:109BA000BD4602B080BD80B582B000AF78607B68F2
:109BB0001800FFF7B7FDC046BD4602B080BD80B5B6
:109BC00082B000AF78607B681800FFF7BDFDC0462B
:109BD000BD4602B080BD0000B0B586B000AFF860F1
:109BE000B9607A6000237B61FB681800FFF746FECE
:109BF000031E02D008237B614CE0BB68DA78132592
:109C00007C197968FB681800FFF7C0FE0300237019
:109C10007B191B785BB201333AD0BB689B78002B71
:109C200004D0FB681800FFF722FD06E0BB685A78F5
:109C3000FB6811001800FFF703FDBB68DB78002B01
:109C40000AD01323FB1800201856BB681A78FB684B
:109C50001900FFF70FFC1DE013203B181B785BB2C7
:109C6000043B0F4A4021D3185B1800215956BB68AA
:109C70001B789B015AB23B181B785BB2043B0A432A
:109C800050B2074A4021D3185B18021C1A7001E039
:109C900004237B617B691800BD4606B0B0BDC04699
:109CA000C820002090B589B000AF78600A00FB1C86
:109CB0001A707B681800FFF7C9FD031E3CD07B6853
:109CC0001800FFF743FE0300043B384A4021D31835
:109CD0005B1800229A560F217B181A700E203B1831
:109CE0007A18127892091A703B181B78032B0FD13F
:109CF000FFF754FD010001227B689A4013000B40DE
:109D000001D0032200E002221F23FB181A700AE090
:109D10000E23FB181B78012B01D1022200E0032245
:109D20001F23FB181A701F23FB181A787B68110079
:109D30001800FFF7B7FC34E07B681800FFF762FDFE
:109D4000031E2ED07B681800FFF700FE0300BB61E6
:109D5000BB699BB240339AB216243B1992001A8019
:109D6000BB691800FFF76EFB3B191B881800FFF753
:109D700024FBFB1C1B78002B13D07B681800FFF71B
:109D8000E5FD03001800FFF7F3FD03003B613B69AD
:109D9000002B06D00122BB699A4013001800FFF780
:109DA00031FBC046BD4609B090BDC046C82000206A
:109DB000B0B58CB000AF0023FB620023BB6222234E
:109DC000FB18802252001A800123FB6100237B6272
:109DD00023E02223FB181B881800FFF7D9FA031E83
:109DE0000FD0FB691800FFF71DFB031E09D02223CB
:109DF000FB181B881800FFF7E0FAFA6AFB691343A7
:109E0000FB62FB695B00FB612222BB18BA18128857
:109E100004321A807B6A01337B627B6A032BD8D9B8
:109E2000BE235B001800FFF7B3FA031E0DD0BE235C
:109E30005B001800FFF7C1FAFB6A80221206134389
:109E4000FB62FFF7ABFC0300BB62FB6A0F2213400F
:109E50002BD00123FB6100237B6223E0FB69FA6ABC
:109E6000134019D07B6A1800FFF73CFB0300BB616D
:109E700017257C197B6A1800FFF748FB0300237045
:109E80007B6A1800FFF774FD03003B617B191978AA
:109E9000BA693B6910009847FB695B00FB617B6A0C
:109EA00001337B627B6A032BD8D9FB6A002B00DB72
:109EB00069E000237B6263E0354A40217B6AD31866
:109EC0005B181B785BB2013357D0314A40217B6A63
:109ED000D3185B1800229A560F217B181A707B1832
:109EE0001B78C0229343BB60BB681800FFF72EFDB0
:109EF00003001800FFF73CFD03007B607B68002B2C
:109F00003BD0FB1C0F22BA18127892091A7001225A
:109F1000BB689A401300FB61BC1CBB681800FFF7CC
:109F200047FC03002370FB69BA6A134003D0BB1CD3
:109F30001B78022B07D0FB69BA6A13401DD1BB1CEA
:109F40001B78032B19D1FB1C1B78032B0FD1BB1CD7
:109F50001B78022B01D1032200E002227B1C1A7025
:109F60007B1C1A78BB6811001800FFF79BFBFB1CD9
:109F70001978BA687B68100098477B6A01337B6266
:109F80007B6A032B98D9C046BD460CB0B0BDC04615
:109F9000C820002080B582B000AF78600A4B1B68F3
:109FA0000422134001D108230AE07B68002B01D171
:109FB0000E2305E0054B5B781A007B681A600023CE
:109FC0001800BD4602B080BDDC2100201021002019
:109FD00090B583B000AF78600C0010001900FB1C36
:109FE000221C1A70BB1C021C1A707B1C0A1C1A70E3
:109FF000FB1C1A78BB1C1B785B001A437B1C1B786C
:10A000009B001A431823FB181B781B021A431100EC
:10A010001C23FB181B781A04A023DB0511437A6864
:10A02000C132FF329200D150C046BD4603B090BD50
:10A0300080B584B002AF7860786800230193002374
:10A040000093002301220121FFF7C2FFC046BD4655
:10A0500002B080BD80B584B002AF78600A00FB1CFE
:10A060001A70FB1C1A787868002301930023009370
:10A07000130000220021FFF7ABFFC046BD4602B02F
:10A0800080BD80B582B000AF7860A023DA050121E1
:10A090007B689940A123DB00D150C046BD4602B089
:10A0A00080BD000080B582B000AF7860A023DB05E2
:10A0B00001217A6891400A0002495A50C046BD46C3
:10A0C00002B080BD0C05000080B582B000AF020078
:10A0D0003960FB1D1A70FB1D1B78012B01D9002371
:10A0E0006EE0FB1D1A7813005B009B185B00364A7C
:10A0F0009B183968062218000DF03BFA3B689B78E4
:10A100001800FFF795FF3B68DB781800FFF790FF1A
:10A110003B681B7900211800FFF79CFF3B685B79C7
:10A120001800FFF785FF3B689978FB1D1A78274BCD
:10A130009200D258A123DB00D1503B68D978FB1D97
:10A140001A78224B9200D358214A99503B681979CA
:10A15000FB1D1A781D4B9200D258A223DB00D15070
:10A160003B685B791800FFF78CFF3B685B78190050
:10A17000FB1D1A78154B9200D3580A0615495A5000
:10A180003B681978FB1D1A78104B9200D358124A7D
:10A190009950FB1D1A780D4B9200D25884235B0016
:10A1A0000021D150FB1D1A78084B9200D258A023F1
:10A1B000DB000121D150FB1D1A78044B9200D358CB
:10A1C0001800BD4602B080BDE021002064200020C0
:10A1D0000C050000240500005405000080B586B081
:10A1E00000AFBA607B600F23FB18021C1A700C23AF
:10A1F000FB180A1C1A80BB68002B02D07B68002B5E
:10A2000001D100236DE00F217B181A78374B9200A3
:10A21000D258374B1A60364B1B680933FF333B610A
:10A220007B181A78334913005B009B185B00CB182E
:10A2300005331B781800FFF735FF3B6900221A60D1
:10A24000BB685A1CBA601A78294B1B6811002A4A4D
:10A250009950BB685A1CBA601B787B611BE0244B89
:10A260001B6825497A695A50BB685A1CBA601B782A
:10A270007B61C0463B691B68002BFBD03B69002219
:10A280001A601B4B1A68A323DB00D1587B685A1C49
:10A290007A60CAB21A700C217B187A181288013AB7
:10A2A0001A807B181B88002BD9D1C0463B691B68DC
:10A2B000002BFBD00E4B1A68A323DB00D358DAB275
:10A2C0007B681A700F23FB181A780A4913005B0089
:10A2D0009B185B00CB1805331B781800FFF7D1FEE5
:10A2E00001231800BD4606B080BDC0466420002092
:10A2F000EC210020E02100201C05000080B582B088
:10A3000000AF0200FB1D1A70FB1D1B781A001F23F3
:10A31000134001229A40034B1A60C046BD4602B06A
:10A3200080BDC04600E100E090B583B000AF020000
:10A330003960FB1D1A70FB1D1B787F2B32D92F4A09
:10A34000FB1D1B7819000F230B40083B9B080633AD
:10A350009B00D31804331B68FA1D127811000322E6
:10A360000A40D200FF2191400A00D2431A40110056
:10A370003B689B01FF221A40FB1D1B78180003233A
:10A380000340DB009A401D48FB1D1B781C000F2377
:10A390002340083B9B080A4306339B00C318043341
:10A3A0001A6027E0164AFB1D1B785BB29B08C0337E
:10A3B0009B009B58FA1D1278110003220A40D2001C
:10A3C000FF2191400A00D2431A4011003B689B01D3
:10A3D000FF221A40FB1D1B78180003230340DB00FB
:10A3E0009A400748FB1D1B785BB29B080A43C033A9
:10A3F0009B001A50C046BD4603B090BD00ED00E082
:10A4000000E100E080B500AFBFF34F8F024B034A7D
:10A41000DA60BFF34F8FFEE700ED00E00400FA05BD
:10A4200080B582B000AF0200FB1D1A70FB1D1B78C7
:10A430001A020E490E4BCB580E490B400B491343E1
:10A440000B4A8B50FB1D1B78002B05D0074AA0231D
:10A45000DB000121D15004E0044AA023DB000021ED
:10A46000D150C046BD4602B080BDC046007000401D
:10A4700004050000FF00FFFF80B500AF034AA123E1
:10A48000DB00D3581800BD4680BDC04600700040B8
:10A4900080B582B000AF78600449C1239B007A6820
:10A4A000CA50C046BD4602B080BDC04600700040E4
:10A4B00080B500AF034A80235B000021D150C04625
:10A4C000BD4680BD0070004076DF7047C046180072
:10A4D0007ADF7047C04618007CDF7047C04618001E
:10A4E0007FDF7047C0461800A9DF7047C0461800DC
:10A4F00060DF7047C046180048DF7047C04618004C
:10A5000080B584B000AFF860B9607A60FB68002B5A
:10A5100001D0FFF777FFC046BD4604B080BD000004
:10A5200080B500AFFFF7C4FFFFF7A6FF0200054BA1
:10A530001A60044B1B68180003F0F6FFC046BD46C6
:10A5400080BDC0469426002080B582B000AF3B009D
:10A550000B4A03CA03C33B0018000CF05BFE40200B
:10A56000FFF75EFF0120FFF793FF01210720FFF7B0
:10A57000DBFE0720FFF7C2FEC046BD4602B080BD2D
:10A58000DC80020080B582B000AF02003960BB1DE4
:10A590001A80BB1D1B883A6803481900FFF7B0FFFB
:10A5A000C046BD4602B080BDEFBEADDE80B586B010
:10A5B00000AF3B001A780F218A43111C01220A4385
:10A5C0001A703B001A780F210A40111C10220A430E
:10A5D0001A70204B18000CF0F5FF03009AB21D49C9
:10A5E0003B001800FFF778FF03007B617B693B614C
:10A5F0003B69002B05D03B69002200211800FFF7C2
:10A600007FFF3B1D082200211800FDF7F3FD3B1DD5
:10A6100014221A803B1D28225A803B1D00229A805A
:10A620003B1DC8225200DA803B1D1800FFF750FF87
:10A6300003007B617B69FB60FB68002B05D0FB6836
:10A64000002200211800FFF75BFFC046BD4606B0A0
:10A6500080BDC046E480020080B586B000AFF860DF
:10A66000B960BB1D1A80BB681B780E2B4FD89A00AF
:10A67000314BD3181B689F461723FB1800221A7012
:10A680004AE01723FB1801221A7045E01723FB1834
:10A6900002221A7040E01723FB1803221A703BE0D5
:10A6A0001723FB1804221A7036E01723FB18052223
:10A6B0001A7031E01723FB1806221A702CE01723BA
:10A6C000FB1807221A7027E01723FB1808221A70BC
:10A6D00022E01723FB1809221A701DE01723FB182C
:10A6E0000A221A7018E01723FB180B221A7013E0C5
:10A6F0001723FB180C221A700EE01723FB180D22EB
:10A700001A7009E01723FB180E221A7004E01723B1
:10A71000FB1800221A70C0461723FB181A78FB6832
:10A720001100180004F046F8044B01221A70C046CC
:10A73000BD4606B080BDC046F8800200542200200D
:10A7400090B589B000AFF860B960BB1D1A801F23B7
:10A75000FB1800221A701023FB181D4A13CA13C3DA
:10A760001E23FB1800221A70BB1D1B889AB20C2AEC
:10A7700000D90C239AB21E23FB181A701F23FB1852
:10A7800000221A700FE01F203B181B78BA68D218FD
:10A790003B181B7811781022BA18D1543B181A783C
:10A7A0003B1801321A701F23FA181E23FB18127867
:10A7B0001B789A42E7D31E23FB181A781023F91846
:10A7C000FB68180007F0E0FDC046BD4609B090BD2B
:10A7D000EC800200B0B588B000AFF860B960BB1D76
:10A7E0001A801F217B1800221A701023FB18174AA9
:10A7F00031CA31C37B1800221A700FE01F203B18AA
:10A800001B78BA68D2183B181B7811781022BA1836
:10A81000D1543B181A783B1801321A701F23FB18C9
:10A820001A78BB1D1B8899B20C2900D90C239BB246
:10A830009A42E3DB1023FA18FB681100180007F0B6
:10A84000F1FDC046BD4608B0B0BDC046EC80020078
:10A8500080B582B000AF786039603B681B78022B0E
:10A8600000D002E003F07EFEC046C046BD4602B006
:10A8700080BD80B582B000AF786039603B681B78DE
:10A88000022B00D002E003F077FEC046C046BD4672
:10A8900002B080BD80B588B000AF3B1D14220021FE
:10A8A0001800FDF7A7FC3B1D124A1A603B1D124A17
:10A8B0005A603B1D114A9A603B1D114ADA603B1DEC
:10A8C000104A1A613A1D104B1100180001F008FAE5
:10A8D0000300FB61FB69BB61BB69002B05D0BB6951
:10A8E000002200211800FFF70BFEC046BD4608B04D
:10A8F00080BDC04659A6010041A70100D5A70100AF
:10A9000051A8010073A80100F021002080B584B097
:10A9100000AF78607B681B78002B12D10B4B1B8833
:10A920003B211800FFF7D0FD0300FB60FB68BB6014
:10A93000BB68002B05D0BB68002200211800FFF780
:10A94000DFFDC046BD4604B080BDC0466C2000207F
:10A9500080B582B000AF78607B68002200211800CB
:10A96000FFF7CEFDC046BD4602B080BD80B58AB0BF
:10A9700000AF3B1D1C2200211800FDF73BFC3B1DD6
:10A9800000221A603B1DA02292025A603B1DF02259
:10A9900012039A603B1D03221A733B1D0022DA81C9
:10A9A0003B1D00221A743B1D0C4A5A613B1D0C4A88
:10A9B0009A613B1D18000CF007FA03007B627B6A6A
:10A9C0003B623B6A002B05D03B6A00220021180045
:10A9D000FFF796FDC046BD460AB080BD0DA9010037
:10A9E00051A9010080B582B000AF0200FB1D1A70B2
:10A9F000C046BD4602B080BD80B586B000AF78606D
:10AA000000237B617B681B88112B0FD002DC102B8D
:10AA100005D04AE0132B1BD0522B2ED045E002F07C
:10AA200095FA7B689A88234B1A803EE002F097FAE9
:10AA30007B69BB60BB68002B05D0BB68002200218E
:10AA40001800FFF75DFD1B4B012252421A802CE0DB
:10AA5000184B1888002300228521FFF741FD0300D1
:10AA60007B617B69FB60FB68002B1BD0FB680022CD
:10AA700000211800FFF744FD14E00E4B1888002356
:10AA800000220021FFF730FD03007B617B693B6101
:10AA90003B69002B08D03B69002200211800FFF71A
:10AAA0002FFD01E0C04600E0C046C046BD4606B0EE
:10AAB00080BDC0466C20002080B582B000AF7860B9
:10AAC0007B6818000CF0CAFA7A68084B110018006D
:10AAD00001F0CEF87B681800FFF78EFF7B68180046
:10AAE0000CF018F8C046BD4602B080BDF021002031
:10AAF00080B588B000AF22490023482208200CF01E
:10AB000085FC0300FB61FB69BB61BB69002B05D0C1
:10AB1000BB69002200211800FFF7F2FC3B1D082250
:10AB200000211800FDF766FB3B1D1A7801210A433E
:10AB30001A703B1D1800FFF7DBFC03007B617B698B
:10AB40003B613B69002B05D03B69002200211800C6
:10AB5000FFF7D6FC0B4B18000CF09EFC03007B614A
:10AB60007B69FB60FB68002B05D0FB68002200219D
:10AB70001800FFF7C5FCC046BD4608B080BDC04602
:10AB800058220020B9AA0100F0B5ABB002AF602591
:10AB90007B19382200211800FDF72CFB7B190222BB
:10ABA0001A707B1900229A707B190622DA70282607
:10ABB000BB19382200211800FDF71CFBBB1901222C
:10ABC0001A82BB19194A5A613B1D180024231A0026
:10ABD0000021FDF70FFB3B1D01221A733B1D402294
:10ABE0001A613B1D00225A61114C3A1DB91978199E
:10ABF0000023009323000BF0DDFC03009C22B91816
:10AC00000B60BB181B689822B9180B60BB181B6837
:10AC1000002B07D09823FB181B6800220021180086
:10AC2000FFF76EFCC046BD4629B0F0BD7020002085
:10AC3000E5A9010080B582B000AFFFF75DFC03001D
:10AC40007B607B683B603B68002B05D03B68002243
:10AC500000211800FFF754FCC046BD4602B080BD7D
:10AC600080B584B000AF254B180001F027FC03F03D
:10AC700021F807F0CDFA03F015FC214A0023052145
:10AC80000020FEF76BF90300FB60FB68BB60BB684C
:10AC9000002B05D0BB68002200211800FFF730FC14
:10ACA000FFF726FFFFF782FCFFF7F4FDFFF76CFFCD
:10ACB000FFF75CFEFFF748FC03200BF079FD030073
:10ACC0007B607B683B603B68002B05D03B680022C3
:10ACD00000211800FFF714FC0A4B00221A70094BE0
:10ACE0001B78002B06D0054B180006F09DF9054B8C
:10ACF00000221A70FFF79EFFF1E7C046F021002006
:10AD0000A022002054220020A0DF7047C046180077
:10AD1000A2DF7047C0461800A6DF7047C046180083
:10AD200063DF7047C046180080B582B000AF78601E
:10AD30007B681B781AB27B6801331B781B021BB23D
:10AD400013431BB29BB21800BD4602B080BDB0B524
:10AD500084B000AF78600E257C197B681800FFF77F
:10AD6000E3FF030023807B191B88012213405A1E36
:10AD70009341DBB21800BD4604B0B0BDB0B584B09D
:10AD800000AF78600E257C197B681800FFF7CCFFB8
:10AD9000030023807B191B88022213405A1E934113
:10ADA000DBB21800BD4604B0B0BD80B582B000AFC4
:10ADB000786039603B6899887B6844229952C04624
:10ADC000BD4602B080BD80B582B000AF786039600A
:10ADD0007B684422012149429952C046BD4602B0D7
:10ADE00080BD80B586B000AF786039603B680633BF
:10ADF0007B617B691A887B689B889A420DD17B684E
:10AE00001B6D002B09D07B681B6D7A691A3211000B
:10AE10007A69128B786898470BE17B691A887B689E
:10AE20009B899A420DD17B685B6D002B09D07B68B2
:10AE30005B6D7A691A3211007A69128B78689847CB
:10AE4000F7E07B691A887B681B8A9A4214D17B6978
:10AE50001B8B022B10D17B691A331800FFF78EFF72
:10AE6000031E04D07B68462201219954E1E07B68EF
:10AE7000462200219954DCE07B691A887B689B8A12
:10AE80009A420DD17B689B6D002B09D07B689B6D2E
:10AE90007A691A3211007A69128B78689847C8E08B
:10AEA0007B691A887B681B8B9A4214D17B691B8B48
:10AEB000022B10D17B691A331800FFF75FFF031EC6
:10AEC00004D07B68472201219954B2E07B68472275
:10AED00000219954ADE07B691A887B681B8C9A42EB
:10AEE00027D17B691B8B022B23D17B68DB6D002B69
:10AEF0001FD07B691A331800FFF740FF031E08D0EC
:10AF00007B684822012199541023FB1800221A70F3
:10AF100007E07B684822002199541023FB18012286
:10AF20001A707B68DB6D1022B9187A681000984798
:10AF30007FE07B691A887B681B8D9A4227D17B69E9
:10AF40001B8B022B23D17B681B6E002B1FD07B69D0
:10AF50001A331800FFF712FF031E08D07B6849223E
:10AF6000012199540C23FB1800221A7007E07B681A
:10AF70004922002199540C23FB1801221A707B6886
:10AF80001B6E0C22B9187A681000984751E07B6953
:10AF90001A887B681B8E9A4214D17B691B8B022B0B
:10AFA00010D17B691A331800FFF7D1FE031E04D0BD
:10AFB0007B684A22012199543BE07B684A220021A8
:10AFC000995436E07B691A887B681B8F9A4214D1AA
:10AFD0007B691B8B022B10D17B691A331800FFF79A
:10AFE000B6FE031E04D07B684B220121995420E059
:10AFF0007B684B22002199541BE07B691A887B688F
:10B0000040215B5A9A4214D17B691B8B022B10D1D1
:10B010007B691A331800FFF79AFE031E04D07B6881
:10B020004C220121995404E07B684C220021995460
:10B03000FFE7C046BD4606B080BD80B586B000AF14
:10B04000786039603B6806337B617B691A887B686E
:10B050009B8B9A420AD110217B1802221A707B68BE
:10B06000DB6D79187A68100098470FE07B691A88C1
:10B070007B689B8C9A4209D10C217B1802221A70A2
:10B080007B681B6E79187A6810009847C046BD46E9
:10B0900006B080BDF0B591B000AF78603960242073
:10B0A00004003B181C2200211800FDF7A3F8200023
:10B0B0003B181A7808210A431A703B181A780421A1
:10B0C0000A431A7005007B1900225A607B1900227E
:10B0D000DA607B1900221A617B1900225A617B1900
:10B0E00000229A617B681A780C217B189A707B1871
:10B0F00002221A8008243B19032200211800FDF7C0
:10B1000079F83B191A780F218A43111C01220A434E
:10B110001A703B191A780F210A40111C10220A4399
:10B120001A703B195A780F218A43111C01220A43D5
:10B130005A703B195A780F210A40111C10220A43F9
:10B140005A703B199A7806218A43111C02220A433D
:10B150009A703B199A7808218A439A703B199A7819
:10B1600010218A439A703B199A7801210A439A70F8
:10B1700010210E007B18142200211800FDF73AF868
:10B1800031007B180C22BA181A607B183A195A60E1
:10B190007B1801221A817B1800225A817B18012218
:10B1A0009A817B1800221A617B6858887B68043377
:10B1B0007A187919FFF7ACFD03001800BD4611B0ED
:10B1C000F0BDF0B595B000AF786039600823FB188A
:10B1D00018000C231A000021FDF70CF818257B1924
:10B1E000032200211800FDF705F87B191A780F21BA
:10B1F0008A43111C01220A431A707B191A780F2105
:10B200000A40111C10220A431A707B195A780F2128
:10B210008A43111C01220A435A707B195A780F2164
:10B220000A40111C10220A435A707B199A78062191
:10B230008A43111C02220A439A70342004003B18EE
:10B240001C2200211800FCF7D5FF20003B181A78BB
:10B2500002210A431A703B181A7820210A431A70F7
:10B260003B181A7808210A431A703B181A780421EF
:10B270000A431A7004003B1900225A603B1900224D
:10B28000DA603B1900221A613B197A195A613B199D
:10B2900000229A617B681A781C217B189A707B18AF
:10B2A00003221A8014257B19032200211800FCF7C1
:10B2B000A1FF7B191A780F218A43111C01220A432E
:10B2C0001A707B191A780F210A40111C10220A43A8
:10B2D0001A707B195A780F218A43111C01220A43E4
:10B2E0005A707B195A780F210A40111C10220A4308
:10B2F0005A707B199A7806218A43111C02220A434C
:10B300009A707B199A7808218A439A707B199A78E7
:10B3100010218A439A707B199A7801210A439A7006
:10B3200020210E007B18142200211800FCF762FF78
:10B3300031007B181C22BA181A607B187A195A60DF
:10B340007B180C221A817B1800225A817B180C2250
:10B350009A817B180822BA181A617B6858887B6822
:10B360000C337A183919FFF7D3FC03001800BD46D7
:10B3700015B0F0BDF0B595B000AF78603960082326
:10B38000FB1818000C231A000021FCF733FF1425CA
:10B390007B19032200211800FCF72CFF7B191A7877
:10B3A0000F218A43111C01220A431A707B191A7853
:10B3B0000F210A40111C10220A431A707B195A7877
:10B3C0000F218A43111C01220A435A707B195A78B3
:10B3D0000F210A40111C10220A435A707B199A78D7
:10B3E00006218A43111C02220A439A703420040069
:10B3F0003B181C2200211800FCF7FCFE20003B1823
:10B400001A7802210A431A703B181A7820210A433D
:10B410001A703B181A7808210A431A703B181A78D8
:10B4200004210A431A7004003B1900225A603B1998
:10B430000022DA603B1900221A613B197A195A611D
:10B440003B1900229A617B681A781C217B189A703C
:10B450007B1804221A8018257B190322002118006A
:10B46000FCF7C8FE7B191A780F218A43111C0122B0
:10B470000A431A707B191A780F210A40111C1022F6
:10B480000A431A707B195A780F218A43111C012232
:10B490000A435A707B195A780F210A40111C102256
:10B4A0000A435A707B199A7806218A43111C02229A
:10B4B0000A439A707B199A7808218A439A707B19FB
:10B4C0009A7810218A439A707B199A7801210A434D
:10B4D0009A7020210E007B18142200211800FCF71E
:10B4E00089FE31007B181C22BA181A607B187A1961
:10B4F0005A607B180C221A817B1800225A817B1813
:10B500000C229A817B180822BA181A617B68588825
:10B510007B6814337A183919FFF7FAFB0300180017
:10B52000BD4615B0F0BDF0B593B000AF786039609E
:10B530000B23FB1800221A702826BB1903220021B6
:10B540001800FCF757FEBB191A780F218A43111C0B
:10B5500001220A431A70BB191A780F210A40111CE4
:10B5600010220A431A70BB195A780F218A43111C02
:10B5700001220A435A70BB195A780F210A40111C44
:10B5800010220A435A70BB199A7806218A43111C6B
:10B5900002220A439A702C2004003B181C2200212E
:10B5A0001800FCF727FE20003B181A7802210A43F6
:10B5B0001A703B181A7820210A431A7005007B196B
:10B5C00000225A607B190022DA607B1900221A617E
:10B5D0007B19BA195A617B1900229A617B681A7823
:10B5E00010217B189A707B1805221A800C243B19B5
:10B5F000032200211800FCF7FDFD3B191A780F21EA
:10B600008A43111C01220A431A703B191A780F2130
:10B610000A40111C10220A431A703B195A780F2154
:10B620008A435A703B195A780F210A405A703B19C5
:10B630009A7806218A43111C02220A439A703B1908
:10B640009A7808218A439A703B199A7810218A4384
:10B650009A703B199A7801210A439A7014210E00BE
:10B660007B18142200211800FCF7C4FD31007B1860
:10B670001022BA181A607B183A195A607B180122F6
:10B680001A817B1800225A817B1801229A817B182B
:10B690000B22BA181A617B6858887B681C337A18A9
:10B6A0007919FFF735FB03001800BD4613B0F0BD54
:10B6B000F0B593B000AF786039602826BB1903223B
:10B6C00000211800FCF796FDBB191A780F218A4358
:10B6D000111C01220A431A70BB191A780F210A4063
:10B6E000111C10220A431A70BB195A780F218A4381
:10B6F000111C01220A435A70BB195A780F210A40C3
:10B70000111C10220A435A70BB199A7806218A43E9
:10B71000111C02220A439A702C2004003B181C22A0
:10B7200000211800FCF766FD20003B181A78202144
:10B730000A431A7005007B1900225A607B19002207
:10B74000DA607B1900221A617B19BA195A617B19D8
:10B7500000229A617B681A7810217B189A707B18F6
:10B7600006221A800C243B19032200211800FCF742
:10B7700041FD3B191A780F218A43111C01220A430B
:10B780001A703B191A780F210A40111C10220A4323
:10B790001A703B195A780F218A435A703B195A780C
:10B7A0000F210A405A703B199A7806218A43111CCE
:10B7B00002220A439A703B199A7808218A439A70A8
:10B7C0003B199A7810218A439A703B199A78012183
:10B7D0000A439A7014210E007B18142200211800CD
:10B7E000FCF708FD31007B181022BA181A607B188C
:10B7F0003A195A607B1801221A817B1800225A815B
:10B800007B1814229A817B6858887B6824337A18C5
:10B810007919FFF77DFA03001800BD4613B0F0BD9B
:10B82000F0B593B000AF786039602826BB190322C9
:10B8300000211800FCF7DEFCBB191A780F218A439F
:10B84000111C01220A431A70BB191A780F210A40F1
:10B85000111C10220A431A70BB195A780F218A430F
:10B86000111C01220A435A70BB195A780F210A4051
:10B87000111C10220A435A70BB199A7806218A4378
:10B88000111C02220A439A702C2004003B181C222F
:10B8900000211800FCF7AEFC20003B181A7810219C
:10B8A0000A431A7005007B1900225A607B19002296
:10B8B000DA607B1900221A617B19BA195A617B1967
:10B8C00000229A617B681A7810217B189A707B1885
:10B8D00007221A800C243B19032200211800FCF7D0
:10B8E00089FC3B191A780F218A43111C01220A4353
:10B8F0001A703B191A780F210A40111C10220A43B2
:10B900001A703B195A780F218A435A703B195A789A
:10B910000F210A405A703B199A7806218A43111C5C
:10B9200002220A439A703B199A7808218A439A7036
:10B930003B199A7810218A439A703B199A78012111
:10B940000A439A7014210E007B181422002118005B
:10B95000FCF750FC31007B181022BA181A607B18D3
:10B960003A195A607B1801221A817B1800225A81E9
:10B970007B1810229A817B6858887B682C337A1850
:10B980007919FFF7C5F903001800BD4613B0F0BDE3
:10B99000F0B593B000AF786039602826BB19032258
:10B9A00000211800FCF726FCBB191A780F218A43E6
:10B9B000111C01220A431A70BB191A780F210A4080
:10B9C000111C10220A431A70BB195A780F218A439E
:10B9D000111C01220A435A70BB195A780F210A40E0
:10B9E000111C10220A435A70BB199A7806218A4307
:10B9F000111C02220A439A702C2004003B181C22BE
:10BA000000211800FCF7F6FB20003B181A781021E3
:10BA10000A431A7005007B1900225A607B19002224
:10BA2000DA607B1900221A617B19BA195A617B19F5
:10BA300000229A617B681A7810217B189A707B1813
:10BA400008221A800C243B19032200211800FCF75D
:10BA5000D1FB3B191A780F218A43111C01220A439A
:10BA60001A703B191A780F210A40111C10220A4340
:10BA70001A703B195A780F218A435A703B195A7829
:10BA80000F210A405A703B199A7806218A43111CEB
:10BA900002220A439A703B199A7808218A439A70C5
:10BAA0003B199A7810218A439A703B199A780121A0
:10BAB0000A439A7014210E007B18142200211800EA
:10BAC000FCF798FB31007B181022BA181A607B181B
:10BAD0003A195A607B1801221A817B1800225A8178
:10BAE0007B1814229A817B6858887B6834337A18D3
:10BAF0007919FFF70DF903001800BD4613B0F0BD2A
:10BB0000F0B593B000AF786039602826BB190322E6
:10BB100000211800FCF76EFBBB191A780F218A432D
:10BB2000111C01220A431A70BB191A780F210A400E
:10BB3000111C10220A431A70BB195A780F218A432C
:10BB4000111C01220A435A70BB195A780F210A406E
:10BB5000111C10220A435A70BB199A7806218A4395
:10BB6000111C02220A439A702C2004003B181C224C
:10BB700000211800FCF73EFB20003B181A7810212A
:10BB80000A431A7005007B1900225A607B190022B3
:10BB9000DA607B1900221A617B19BA195A617B1984
:10BBA00000229A617B681A7810217B189A707B18A2
:10BBB00009221A800C243B19032200211800FCF7EB
:10BBC00019FB3B191A780F218A43111C01220A43E1
:10BBD0001A703B191A780F210A40111C10220A43CF
:10BBE0001A703B195A780F218A435A703B195A78B8
:10BBF0000F210A405A703B199A7806218A43111C7A
:10BC000002220A439A703B199A7808218A439A7053
:10BC10003B199A7810218A439A703B199A7801212E
:10BC20000A439A7014210E007B1814220021180078
:10BC3000FCF7E0FA31007B181022BA181A607B1862
:10BC40003A195A607B1801221A817B1800225A8106
:10BC50007B1814229A817B6858887B683C337A1859
:10BC60007919FFF755F803001800BD4613B0F0BD71
:10BC700080B582B000AF786039607B68002B2BD034
:10BC80003B68002B28D03B681B88112B0FD002DCAF
:10BC9000102B05D021E0502B10D0532B15D01CE0D9
:10BCA0003A687B6811001800FFF77FF815E03A68E2
:10BCB0007B6811001800FFF786F80EE03A687B6891
:10BCC00011001800FFF78DF807E03A687B68110053
:10BCD0001800FFF7B2F900E0C046BD4602B080BDD3
:10BCE00090B589B000AF786039600823FB18694AC5
:10BCF00013CA13C312681A607B68002B02D03B681A
:10BD0000002B01D10E23C1E07B684422012149426E
:10BD100099523B681A687B681A653B685A687B6869
:10BD20005A653B689A687B689A653B68DA687B6805
:10BD3000DA653B681A697B681A667B6846220021CF
:10BD400099547B684722002199547B68482200213E
:10BD500099547B684922002199547B684A2200212A
:10BD600099547B684B22002199547B684C22002116
:10BD700099547A680823FB1811001800FEF7D0FFC9
:10BD80000300FB61FB69002B01D0FB697EE07B684F
:10BD90001A7818217B189A707B1801221A807B6808
:10BDA0009A1C7B1819000120FEF7AEFF0300FB610F
:10BDB000FB69002B01D0FB6968E03A687B681100E1
:10BDC0001800FFF767F90300FB61FB69002B01D046
:10BDD000FB695BE03A687B6811001800FFF7F1F936
:10BDE0000300FB61FB69002B01D0FB694EE03A6860
:10BDF0007B6811001800FFF7BDFA0300FB61FB69C7
:10BE0000002B01D0FB6941E03A687B681100180003
:10BE1000FFF789FB0300FB61FB69002B01D0FB6985
:10BE200034E03A687B6811001800FFF741FC03001A
:10BE3000FB61FB69002B01D0FB6927E03A687B6856
:10BE400011001800FFF7ECFC0300FB61FB69002BFD
:10BE500001D0FB691AE03A687B6811001800FFF70F
:10BE600097FD0300FB61FB69002B01D0FB690DE02E
:10BE70003A687B6811001800FFF742FE0300FB617F
:10BE8000FB69002B01D0FB6900E000231800BD46D0
:10BE900009B090BD3481020090B589B000AFF86060
:10BEA000B960BB1D1A80FB68002B01D10E2333E063
:10BEB000FB6844229B5A1A4A934207D0FB684622E9
:10BEC0009B5C01225340DBB2002B01D0082323E00E
:10BED000BB1D1B880C2B01D907231DE010243B1927
:10BEE000102200211800FCF785F9FB689A892100CF
:10BEF0007B181A807B18BA68DA607B18BA1D9A60C2
:10BF00007B1802229A70FB6844229B5A7A1811000F
:10BF10001800FEF701FF03001800BD4609B090BDF0
:10BF2000FFFF000090B589B000AFF860B960BB1D9D
:10BF30001A80FB68002B01D10E2333E0FB684422FA
:10BF40009B5A1A4A934207D0FB6847229B5C012206
:10BF50005340DBB2002B01D0082323E0BB1D1B881C
:10BF60000C2B01D907231DE010243B1910220021BE
:10BF70001800FCF73FF9FB689A8A21007B181A80A9
:10BF80007B18BA68DA607B18BA1D9A607B180222A7
:10BF90009A70FB6844229B5A7A1811001800FEF729
:10BFA000BBFE03001800BD4609B090BDFFFF0000B6
:10BFB00090B589B000AFF860B960BB1D1A80FB680E
:10BFC000002B01D10E2333E0FB6844229B5A1A4A0E
:10BFD000934207D0FB6848229B5C01225340DBB2AE
:10BFE000002B01D0082323E0BB1D1B88012B01D0AF
:10BFF00007231DE010243B19102200211800FCF734
:10C00000F9F8FB689A8B21007B181A807B18BA68B4
:10C01000DA607B18BA1D9A607B1802229A70FB685E
:10C0200044229B5A7A1811001800FEF775FE03008F
:10C030001800BD4609B090BDFFFF000090B589B063
:10C0400000AFF860B960BB1D1A80FB68002B01D1FE
:10C050000E2333E0FB6844229B5A1A4A934207D0CE
:10C06000FB6849229B5C01225340DBB2002B01D0CC
:10C07000082323E0BB1D1B88142B01D007231DE0E0
:10C0800010243B19102200211800FCF7B3F8FB68BC
:10C090009A8C21007B181A807B18BA68DA607B18AA
:10C0A000BA1D9A607B1802229A70FB6844229B5A40
:10C0B0007A1811001800FEF72FFE03001800BD4685
:10C0C00009B090BDFFFF000090B589B000AFF860E7
:10C0D000B960BB1D1A80FB68002B01D10E2333E031
:10C0E000FB6844229B5A1A4A934207D0FB684A22B3
:10C0F0009B5C01225340DBB2002B01D0082323E0DC
:10C10000BB1D1B88102B01D007231DE010243B19F9
:10C11000102200211800FCF76DF8FB689A8D2100B1
:10C120007B181A807B18BA68DA607B18BA1D9A608F
:10C130007B1801229A70FB6844229B5A7A181100DE
:10C140001800FEF7E9FD03001800BD4609B090BDD8
:10C15000FFFF000090B589B000AFF860B960BB1D6B
:10C160001A80FB68002B01D10E2333E0FB684422C8
:10C170009B5A1A4A934207D0FB684B229B5C0122D0
:10C180005340DBB2002B01D0082323E0BB1D1B88EA
:10C19000142B01D907231DE010243B191022002184
:10C1A0001800FCF727F8FB689A8E21007B181A808C
:10C1B0007B18BA68DA607B18BA1D9A607B18012276
:10C1C0009A70FB6844229B5A7A1811001800FEF7F7
:10C1D000A3FD03001800BD4609B090BDFFFF00009D
:10C1E00090B589B000AFF860B960BB1D1A80FB68DC
:10C1F000002B01D10E2333E0FB6844229B5A1A4ADC
:10C20000934207D0FB684C229B5C01225340DBB277
:10C21000002B01D0082323E0BB1D1B88142B01D960
:10C2200007231DE010243B19102200211800FBF702
:10C23000E1FFFB689A8F21007B181A807B18BA688F
:10C24000DA607B18BA1D9A607B1801229A70FB682D
:10C2500044229B5A7A1811001800FEF75DFD030076
:10C260001800BD4609B090BDFFFF0000B0B58EB00C
:10C2700000AF786039603723FB1800221A70202342
:10C28000FB18180014231A000021FBF7B3FF0C233E
:10C29000FB18180014231A000021FBF7ABFF36230C
:10C2A000FB1800221A703423FB1800221A8039E090
:10C2B00034243B191B883A68D218362108007B18B1
:10C2C0001B7811782022BA18D15401007B181A78F3
:10C2D0007B1801321A703B191A883B1901321A80F7
:10C2E0007B181B78142B1DD13623FB181B789AB2B0
:10C2F0002023F9187B681800FFF772FF020037212E
:10C300007B181A707B181B78082B07D04F4B012223
:10C310001A704F4B1B685A1C4D4B1A603623FB1882
:10C3200000221A703423FB181B883A68D3181B7834
:10C33000002BBDD134243B191B883A68D218362112
:10C3400008007B181B78117820257A19D154010038
:10C350007B181A787B1801321A703B191A883B191E
:10C3600001321A807B181B789AB279197B68180001
:10C37000FFF736FF020037217B181A707B181B78F5
:10C38000082B08D0314B01221A70314B1B685A1C04
:10C390002F4B1A6052E02D4B1B78002B4ED00C24F3
:10C3A0003B19142200211800FBF724FF29493B19EF
:10C3B000132218000BF00DF939197B6814221800AC
:10C3C000FFF70EFF020037217B181A707B181B78CD
:10C3D000082B08D01D4B01221A701D4B1B685A1CDC
:10C3E0001B4B1A602AE00C243B1914220021180070
:10C3F000FBF700FF164B1A6817493B1918000BF0A2
:10C40000C1F839197B6811221800FFF7E9FE020014
:10C4100037217B181A707B181B78082B08D00B4B20
:10C4200001221A700A4B1B685A1C094B1A6005E05E
:10C43000064B00221A70064B00221A603723FB18A5
:10C440001B781800BD460EB0B0BDC0466C2400205D
:10C4500068240020448102005881020090B583B016
:10C4600000AF78600C0010001900FB1C221C1A7031
:10C47000BB1C021C1A707B1C0A1C1A70FB1C1A784D
:10C48000BB1C1B785B001A437B1C1B789B001A4368
:10C490001823FB181B781B021A4311001C23FB18DE
:10C4A0001B781A04A023DB0511437A68C132FF32DE
:10C4B0009200D150C046BD4603B090BD90B5ABB020
:10C4C00002AF786000239C22BA181360EF4B7A68A1
:10C4D0001A604023FB18180003231A000021FBF701
:10C4E00089FE3C23FB18180003231A000021FBF7E8
:10C4F00081FE3823FB18180003231A000021FBF7E4
:10C5000079FE3423FB18180003231A000021FBF7DF
:10C5100071FE3023FB18180003231A000021FBF7DB
:10C5200069FE2C243B19180003231A000021FBF795
:10C5300061FE3B1901225A702823FB1818000323BF
:10C540001A000021FBF756FE2423FB1818000323D2
:10C550001A000021FBF74EFE2023FB1818000323CE
:10C560001A000021FBF746FE1C23FB18C84A12687C
:10C570001A601823FB18C74A12681A601423FB18A4
:10C58000C44A12681A601023FB18C24A12681A6063
:10C590000C217B1802221A707B1800225A707B181B
:10C5A00000229A707B180022DA7008217B18022280
:10C5B0001A707B1800225A707B1800229A707B1820
:10C5C0000022DA70FDF786FA03001A0001235340B7
:10C5D000DBB2002B16D0FDF73BFA03009C22B91802
:10C5E0000B60BB181B689822B9180B60BB181B683E
:10C5F000002B07D09823FB181B680022002118008D
:10C60000FDF77EFF4023FB1819001E20FDF770FA8E
:10C6100003009C22B9180B60BB181B689422B91840
:10C620000B60BB181B68002B07D09423FB181B68FA
:10C63000002200211800FDF763FF3C23FB181900BE
:10C640000720FDF755FA03009C22B9180B60BB18B0
:10C650001B689022B9180B60BB181B68002B07D011
:10C660009023FB181B68002200211800FDF748FFEB
:10C670003823FB1819000920FDF73AFA03009C2221
:10C68000B9180B60BB181B688C22B9180B60BB185B
:10C690001B68002B07D08C23FB181B68002200218D
:10C6A0001800FDF72DFF00230193042300930023BE
:10C6B000012201210920FFF7D1FE3423FB181900C4
:10C6C0000A20FDF715FA03009C22B9180B60BB186D
:10C6D0001B688822B9180B60BB181B68002B07D099
:10C6E0008823FB181B68002200211800FDF708FFB3
:10C6F0003023FB1819001020FDF7FAF903009C22E3
:10C70000B9180B60BB181B688422B9180B60BB18E2
:10C710001B68002B07D08423FB181B680022002114
:10C720001800FDF7EDFE2C23FB1819001520FDF76E
:10C73000DFF903009C22B9180B60BB181B6880222C
:10C74000B9180B60BB181B68002B07D08023FB189F
:10C750001B68002200211800FDF7D2FE2823FB18D9
:10C7600019001620FDF7C4F903009C22B9180B60CC
:10C77000BB181B68FB67FB6F002B05D0FB6F00220B
:10C7800000211800FDF7BCFE2023FB1819001C2017
:10C79000FDF7AEF903009C22B9180B60BB181B68AB
:10C7A000BB67BB6F002B05D0BB6F002200211800B8
:10C7B000FDF7A6FE2423FB1819001D20FDF798F9AC
:10C7C00003009C22B9180B60BB181B687B677B6F4A
:10C7D000002B05D07B6F002200211800FDF790FE92
:10C7E0002D4A1C23FB1819000F20FDF7F5F9030053
:10C7F0009C22B9180B60BB181B683B673B6F002B72
:10C8000005D03B6F002200211800FDF779FE0121C1
:10C810000F20FDF747FA9C23FB181B68FB66FB6E95
:10C82000002B05D0FB6E002200211800FDF768FEEA
:10C830001A4A1823FB1819000020FDF7CDF9030050
:10C840009C22B9180B60BB181B68BB66BB6E002B23
:10C8500005D0BB6E002200211800FDF751FE01211A
:10C860000020FDF71FFA9C23FB181B687B667B6E7C
:10C87000002B05D07B6E002200211800FDF740FE42
:10C88000074A1423FB1819000CE0C046702400204E
:10C89000688102006C810200F5C9010091CB0100A2
:10C8A000FDCC01000120FDF797F903009C22B91887
:10C8B0000B60BB181B683B663B6E002B05D03B6EC4
:10C8C000002200211800FDF71BFE01210120FDF7C9
:10C8D000E9F99C23FB181B68FB65FB6D002B05D059
:10C8E000FB6D002200211800FDF70AFE3E4A1023CE
:10C8F000FB1819000220FDF76FF903009C22B918FC
:10C900000B60BB181B68BB65BB6D002B05D0BB6DF6
:10C91000002200211800FDF7F3FD01210220FDF7A0
:10C92000C1F99C23FB181B687B657B6D002B05D030
:10C930007B6D002200211800FDF7E2FD2B4A0C233D
:10C94000FB1819000620FDF747F903009C22B918CF
:10C950000B60BB181B683B653B6D002B05D03B6D26
:10C96000002200211800FDF7CBFD00210620FDF775
:10C9700099F99C23FB181B68FB64FB6C002B05D00A
:10C98000FB6C002200211800FDF7BAFD184A0823AD
:10C99000FB1819000820FDF71FF903009C22B918A5
:10C9A0000B60BB181B68BB64BB6C002B05D0BB6C59
:10C9B000002200211800FDF7A3FD00210820FDF74B
:10C9C00071F99C23FB181B687B647B6C002B05D0E2
:10C9D0007B6C002200211800FDF792FD0023180057
:10C9E000BD4629B090BDC046A9CD01000FCA0100C7
:10C9F00025CA010080B582B000AF78600A00FB1C38
:10CA00001A7001F0A5FDC046BD4602B080BD80B5DC
:10CA100082B000AF78600A00FB1C1A70C046BD46A9
:10CA200002B080BD80B582B000AF78600A00FB1C08
:10CA30001A70C046BD4602B080BD000090B5C7B0B8
:10CA400000AFF860B960304B8C2149008C46BC4483
:10CA500063441A702D4B8C2252009446BC446344AC
:10CA6000180080235B001A000021FBF7C3FB8B2317
:10CA70005B00FB1800221A80002388225200BA189B
:10CA8000136014E08B2040003B181B88BA68D21852
:10CA90003B181B8811781D4A8C246400A446BC44B2
:10CAA0006244D1543B181A883B1801321A808B23F8
:10CAB0005B00FB181B88BA68D3181B78002B05D0C5
:10CAC0008B235B00FB181B88F92BDBD900F0EEF9F8
:10CAD0000D4B8C2252009446BC4463441B781024B6
:10CAE0003A190B4938190AF04DFD3A19FB68110043
:10CAF0001800FFF7BBFB030088225200BA1813602E
:10CB0000C046BD4647B090BDEFFEFFFFF8FEFFFFF9
:10CB10007081020080B58AB000AF786039600C2364
:10CB2000FB18180014231A000021FBF763FB2623CF
:10CB3000FB1800221A8000233B620FE026203B18DE
:10CB40001B883A68D2183B181B8811780C22BA1837
:10CB5000D1543B181A883B1801321A802623FB183F
:10CB60001B883A68D3181B78002B04D02623FB18A7
:10CB70001B88132BE2D90C23FA187B6811001800CC
:10CB8000FFF774FB03003B62C046BD460AB080BDA0
:10CB9000B0B58AB000AF78600A00FB1C1A70102391
:10CBA000FB18180014231A000021FBF723FB27238E
:10CBB000FB1800221A700F243B19180001F07EFEAA
:10CBC0003B191B78062B2CD1434B802292001A80F4
:10CBD000424B802292001A8027257C1907F014FF0F
:10CBE000030023707B191B78002B08D03C4B18687E
:10CBF0002723FB181A783B4B1900FFF71FFF364B12
:10CC00001B881A00354B1B883749102438190AF045
:10CC1000B9FC334B1B683A1911001800FFF77AFF73
:10CC200056E0324B1B78013BDAB2304B1A702F4B77
:10CC30001B78002B02D12D4B04221A702B4B1B7832
:10CC40001A00012313400CD1294B1B78013BDAB2A7
:10CC5000274B1A70264B1B78002B02D1244B06223F
:10CC60001A70234B1B785B01DAB2204B1B78012131
:10CC70000B40DBB2191C8900CB18DB18DBB2D318D0
:10CC8000DAB226217B1814321A707B181B78180030
:10CC900005F01EF92723FB181B78002B08D0104B3A
:10CCA00018682723FB181A78124B1900FFF7C6FEE5
:10CCB0002623FB181A78104910243B1918000AF093
:10CCC00061FC074B1B683A1911001800FFF722FF9F
:10CCD000C046BD460AB0B0BD7420002076200020BA
:10CCE0007024002078810200A081020079200020B9
:10CCF00078200020B4810200E0810200B0B588B045
:10CD000000AF78600A00FB1C1A700823FB1818009B
:10CD100014231A000021FBF76DFA1F23FB180022D1
:10CD20001A701A4B1B880133194A134003D5013B73
:10CD3000184A134301339AB2144B1A801F257C19E9
:10CD400007F098FE030023707B191B78002B08D096
:10CD5000114B18681F23FB181A78104B1900FFF7A6
:10CD60006DFE0F4B1B881A00084B1B880D490824C9
:10CD700038190AF007FC084B1B683A191100180013
:10CD8000FFF7C8FEC046BD4608B0B0BD7620002003
:10CD9000FF03008000FCFFFF70240020F4810200EC
:10CDA0007420002010820200B0B588B000AF786017
:10CDB0000A00FB1C1A700823FB18180014231A0021
:10CDC0000021FBF717FA1F23FB1800221A701A4BD9
:10CDD0001B880133194A134003D5013B184A1343FA
:10CDE00001339AB2144B1A801F257C1907F078FE84
:10CDF000030023707B191B78002B08D0114B186897
:10CE00001F23FB181A78104B1900FFF717FE0A4B67
:10CE10001B881A000D4B1B880D49082438190AF08D
:10CE2000B1FB084B1B683A1911001800FFF772FE9E
:10CE3000C046BD4608B0B0BD74200020FF0300808E
:10CE400000FCFFFF702400202482020076200020D6
:10CE50003C82020080B500AF1520FCF798FE16203A
:10CE6000FCF7A1FE00231800BD4680BD80B582B04E
:10CE700000AF0720FCF78BFE1E20FCF788FEFA238C
:10CE80007B607B6818000138C046C046C046C0467B
:10CE9000C046C046C046C046C046C046C046C04662
:10CEA000F1D100231800BD4602B080BD80B582B02C
:10CEB00000AF1E20FCF777FE0720FCF774FEFA2374
:10CEC0007B607B6818000138C046C046C046C0463B
:10CED000C046C046C046C046C046C046C046C04622
:10CEE000F1D100231800BD4602B080BD80B500AF6F
:10CEF0006420FCF769F91020FCF755FE6420FCF76C
:10CF000063F91020FCF743FE00231800BD4680BDE6
:10CF100080B500AF1420FCF757F90920FCF737FE65
:10CF20001420FCF751F90920FCF73DFE1420FCF712
:10CF30004BF900231800BD4680BD80B500AF0A2024
:10CF4000FCF725FE00231800BD4680BD80B500AF6C
:10CF50001D20FCF71CFE00231800BD4680BD80B5D7
:10CF600000AF1D20FCF71FFE00231800BD4680BD4A
:10CF700080B500AF1C20FCF70AFE00231800BD4658
:10CF800080BD80B500AF1C20FCF70DFE002318000B
:10CF9000BD4680BD80B500AF1C20FCF710FE00230D
:10CFA0001800BD4680BD90B583B000AFBB1D002208
:10CFB0001A807B1D00221A703B1D00221A70BB1DB7
:10CFC00000221A807B1D20221A703C1D7B1D1978BF
:10CFD000BB1D1A880B000021012000F0B3FF0300E5
:10CFE00023703B1D1B78002B02D03B1D1B7896E065
:10CFF000BB1D10221A807B1D10221A703C1D7B1D48
:10D000001978BB1D1A880B000021012000F09AFF3F
:10D01000030023703B1D1B78002B02D03B1D1B78A7
:10D020007DE0BB1D70221A807B1D80221A703C1D82
:10D030007B1D1978BB1D1A880B000021012000F010
:10D0400081FF030023703B1D1B78002B02D03B1D8A
:10D050001B7864E0BB1D20221A807B1D20221A70E1
:10D060003C1D7B1D1978BB1D1A880B000021012077
:10D0700000F068FF030023703B1D1B78002B02D0DB
:10D080003B1D1B784BE0BB1D30221A807B1D2922E3
:10D090001A703C1D7B1D1978BB1D1A880B000021DE
:10D0A000012000F04FFF030023703B1D1B78002B75
:10D0B00002D03B1D1B7832E0BB1D50221A807B1D25
:10D0C00081221A703C1D7B1D1978BB1D1A880B002C
:10D0D0000021012000F036FF030023703B1D1B7868
:10D0E000002B02D03B1D1B7819E0BB1D40221A808B
:10D0F0007B1D29221A703C1D7B1D1978BB1D1A88C7
:10D100000B000021012000F01DFF030023703B1DD8
:10D110001B78002B02D03B1D1B7800E00023180079
:10D12000BD4603B090BD000090B593B000AFF8606D
:10D13000B9607A601A00FB1C1A704723FB18FF22A3
:10D140001A704623FB18FF221A702423FB181800BC
:10D1500014231A000021FBF74DF81423FB181800C4
:10D1600010231A000021FBF745F800233B644523F8
:10D17000FB1800221A707B681B78002B11D07B688B
:10D180005B78002B0DD07B68DA697B685B6A0121D4
:10D190009A4201DC0023191CCAB24723FB181A70FB
:10D1A00023E07B681B78002B0BD07B685B78012227
:10D1B0005340DBB2002B04D04723FB1801221A7026
:10D1C00013E07B681B7801225340DBB2002B08D0B0
:10D1D0007B685B78002B04D04723FB1800221A7071
:10D1E00003E04723FB18FF221A70BB681B78002B53
:10D1F00011D0BB685B78002B0DD0BB68DA69BB68C7
:10D200005B6A01219A4201DC0023191CCAB2462341
:10D21000FB181A7023E0BB681B78002B0BD0BB688F
:10D220005B7801225340DBB2002B04D04623FB186D
:10D2300001221A7013E0BB681B7801225340DBB255
:10D24000002B08D0BB685B78002B04D04623FB186A
:10D2500000221A7003E04623FB18FF221A704523B0
:10D26000FB1800221A702EE04623FB181B78012BB6
:10D270000BD145217B181A787B181B78B9688A185E
:10D2800091782422BA18D15417E04623FB181B7852
:10D29000002B0BD145217B181A787B181B78B968B5
:10D2A0008A18917B2422BA18D15406E04523FB1832
:10D2B0001B782422BA180021D15445217B181A78F2
:10D2C0007B1801321A704523FB181B780B2BCBD926
:10D2D000FB1C1B785BB27F2213405AB258230821F3
:10D2E0008C46BC4463441B78012B02D180235B42F3
:10D2F00000E0002313435BB2DAB22423FB181A7355
:10D300004523FB1800221A7063E04623FB181B78A4
:10D31000012B22D1BB68DB69190045203B181B7823
:10D320000322D31ADB000A00DA403B181B780D33C6
:10D33000D1B224243A19D154BB681B6A19003B1896
:10D340001B780322D31ADB000A00DA403B181B7853
:10D350001033D1B23A19D15435E04623FB181B786B
:10D36000002B22D1BB689B6A190045203B181B7813
:10D370000322D31ADB000A00DA403B181B780D3376
:10D38000D1B224243A19D154BB685B6A19003B1806
:10D390001B780322D31ADB000A00DA403B181B7803
:10D3A0001033D1B23A19D1540DE045203B181B7807
:10D3B0000D3324243A190021D1543B181B78103323
:10D3C0003A190021D15445217B181A787B18013273
:10D3D0001A704523FB181B78022B96D9A34B1A7899
:10D3E0002423FB18DA742423F918FB68142218008C
:10D3F000FEF724FE03003B643B6C9D4A9342F2D04F
:10D400003B6C082B0AD03B6CFB63FB6B002B05D0FD
:10D41000FB6B002200211800FDF772F8934B1B787C
:10D420000133DAB2914B1A70582308229446BC4457
:10D4300063441B78012B00D013E114217B18462094
:10D440003A1812781A707B184722BA181278DA70D4
:10D450007B1850220824A446BC44624412781A73F4
:10D460007B681B78DB005AB27B685B789B005BB201
:10D4700013435AB2BB681B785B005BB213435AB2CA
:10D48000BB685B785BB213435BB2DAB27B185A734A
:10D490007B1854220824A446BC44624412789A7330
:10D4A000724B1A787B18DA734523FB1803221A7023
:10D4B0003B181B78012B1CD1BB68DB691900452088
:10D4C0003B181B780322D31ADB00D9400B00DAB2D9
:10D4D00014243B195A70BB681B6A19003B181B784F
:10D4E0000322D31ADB00D9400B00DAB23B199A7041
:10D4F00028E04623FB181B78002B1CD1BB689B6AD5
:10D50000190045203B181B780322D31ADB00D940B1
:10D510000B00DAB214243B195A70BB685B6A19001D
:10D520003B181B780322D31ADB00D9400B00DAB278
:10D530003B199A7006E014217B1800225A707B1860
:10D5400000229A704523FB1800221A7063E04723DB
:10D55000FB181B78012B22D17B68DB691900452061
:10D560003B181B780322D31ADB000A00DA403B1871
:10D570001B780433D1B214243A19D1547B681B6A46
:10D5800019003B181B780322D31ADB000A00DA408B
:10D590003B181B780833D1B23A19D15435E04723F0
:10D5A000FB181B78002B22D17B689B6A1900452051
:10D5B0003B181B780322D31ADB000A00DA403B1821
:10D5C0001B780433D1B214243A19D1547B685B6AB6
:10D5D00019003B181B780322D31ADB000A00DA403B
:10D5E0003B181B780833D1B23A19D1540DE04520CD
:10D5F0003B181B78043314243A190021D1543B18EA
:10D600001B7808333A190021D15445217B181A7828
:10D610007B1801321A704523FB181B78032B96D90F
:10D620001423F918FB6810221800FEF74DFD0300C3
:10D630003B643B6C0E4A9342F2D03B6C082B0AD001
:10D640003B6CBB63BB6B002B05D0BB6B0022002186
:10D650001800FCF755FF054B1B780133DAB2034B7A
:10D660001A7000231800BD4613B090BD742400202A
:10D6700004300000F0B59DB002AF03003722BA18A5
:10D680001370362230239C46BC44624450231380DE
:10D69000352330217A18D2180023137023247B18E5
:10D6A0001A190023137014200C007B181B18180083
:10D6B0000C231A000021FAF79DFD08202300FA1818
:10D6C000131818000C231A000021FAF793FD002309
:10D6D0000024BB65FC6500237B65362211003020E9
:10D6E0008446BC446244512313800A003023F91855
:10D6F0008B18198830208446BC4462444B1C13802C
:10D70000002300930B0000220121012000F032FBD6
:10D7100000F000FB23243023FA181319180000F03E
:10D7200019FB3023FB181B191B78BB610023FB611D
:10D73000BA6952067A6100233B61BB6D39697A6927
:10D7400008000343BB65FB6D1343FB6535233022A3
:10D750009446BC44634400221A704FE036213023C3
:10D76000FA1853181A8830208446BC446144531C6C
:10D770000B8000230093130000220121012000F000
:10D78000F9FA00F0C7FA23243023FA181319180005
:10D7900000F0E0FA3023FB181B191B783B620023D2
:10D7A0007B62352330229446BC4463441B78DB0003
:10D7B0003122D31A1A00203A002A03DB396A914039
:10D7C0000E0009E02022D21A386A796A0400D44097
:10D7D000220099400E0016433A6A9A401500BB6D2C
:10D7E0002B43BB65FB6D3343FB65352130203B1874
:10D7F0005B181A783B185B1801321A7035233022F7
:10D800009446BC4463441B78062BA7D936223025A6
:10D810007B199B181B8830218C46BC446244591CE0
:10D8200011800022009200220121012000F0A2FAC2
:10D8300000F070FA232214007B199B18180000F0E6
:10D8400089FA22007B199B181B78DB09DBB2BB60CD
:10D850000023FB600123B868F96804001C403C60A9
:10D86000002319407960BB6D386879680400234350
:10D87000BB65FB6D0B43FB657B199B181B785B0637
:10D880007A6D13437B65352330229446BC44634450
:10D8900000221A7030E0362230257B199B181B8835
:10D8A00030218C46BC446244591C118000220092F5
:10D8B00000220121012000F05DFA00F02BFA232460
:10D8C0007B191B19180000F045FA7B191B191B78EE
:10D8D000190035207B191B181B78DB001122D31A85
:10D8E00099400B007A6D13437B657B191B181A78DE
:10D8F0007B191B1801321A70352330229446BC4420
:10D9000063441B78022BC6D9362230257B199B181D
:10D910001B8830218C46BC446244591C1180002273
:10D92000009200220121012000F024FA00F0F2F917
:10D9300023247B191B19180000F00CFA7B191B1902
:10D940001B78DB09DBB21A00012313407A6D134305
:10D950007B65352330229446BC44634400221A7010
:10D9600033E0352330229446BC4463441B780722BD
:10D97000D31ADB001A00203A002A03DBF96DD140EC
:10D98000B9620AE02022D21AF96D91400A00B96DFD
:10D99000D940B962B96A1143B962FA6DDA40FA62E4
:10D9A000352030243B191B181B782822BA1811780F
:10D9B00014223025AC46BC446244D1543B191B1898
:10D9C0001A783B191B1801321A70352330229446FD
:10D9D000BC4463441B78072BC3D9352330229446BB
:10D9E000BC44634408221A701AE0352030243B19E5
:10D9F0001B181B780B22D31ADB007A6DDA403B1917
:10DA00001B181B78D1B214223025AC46BC446244AA
:10DA1000D1543B191B181A783B191B1801321A7084
:10DA2000352330229446BC4463441B780B2BDCD94D
:10DA30003723FB181B78002B02D0012B09D011E0F3
:10DA4000082330229446BC446344180004F048FD87
:10DA500011E0082330229446BC446344180004F0CB
:10DA60005DFD08E0082330229446BC44634418005E
:10DA700004F036FDC04608233022BA18D11814230A
:10DA800030229446BC4463440C22180009F062FD25
:10DA9000031E01D0092300E000231800BD461BB07F
:10DAA000F0BD90B587B002AF78600A00FB1C1A7019
:10DAB0000C23FB1872221A800F217B1800221A7087
:10DAC0000823FB1800221A607B6800221A607B186A
:10DAD00000221A7020E00F243B191B789AB20C2107
